:060000000A128A110C280F
:10000800FE00030EF0000A08F1000A128A118E2B76
:100018000A128A110F2883134830FD000330FE00AE
:10002800C530FF003E3084000A128A11B6230A1236
:100038008A11B001B101B201B301B401B501B60131
:10004800B701B801B901BA01BB01BC01BD01F70193
:10005800F801F90183010A128A11FC2A8B13F901AC
:10006800F80183120313BD01BC01BB01BA01B90138
:100078003308B7003208B6003108B5003008B400BC
:100088003408A8003508A9003608AA003708AB00CC
:1000980010300310A80DA90DAA0DAB0DFF3E031DCE
:1000A8004D282B08B7002A08B6002908B5002808EB
:1000B800B4000F08A800A901AA01AB012B08B300DE
:1000C8002A08B2002908B1002808B0003008A800A2
:1000D8003108A9003208AA003308AB000830031021
:1000E800A80DA90DAA0DAB0DFF3E031D73282B0803
:1000F800B3002A08B2002908B1002808B000300867
:10010800A8003108A9003208AA003308AB000E087D
:10011800AC00AD01AE01AF012C08A8072D080318EB
:100128002D0F97289828A9072E0803182E0F9D2809
:100138009E28AA072F0803182F0AAB072B08B3001D
:100148002A08B2002908B1002808B000340830078E
:10015800A8000030031801303507AA010318AA0ABD
:100168003107A9000318AA0A36082A07AB010318A1
:10017800AB0A3207AA000318AB0A37082B07330764
:10018800AB002B08B7002A08B6002908B5002808D4
:10019800B4000030A3000030A2000030A1003D30C0
:1001A800A0003708A7003608A6003508A5003408BF
:1001B800A4000A128A1146230A128A118312031311
:1001C8002308B7002208B6002108B5002008B400AB
:1001D80001300310B70CB60CB50CB40CFF3E031D70
:1001E800ED2818290130FF007F08F90740308312F5
:1001F8000313A8004230A9000F30AA000030AB005A
:100208002808B4022908031C290F0B290C29B50258
:100218002A08031C2A0F11291229B6022B08031CCD
:100228002B0F17291829B7023708031D2A290F3061
:100238003602031D272942303502031D2729403085
:100248003402031D272903182A292B29F6284E29A9
:100258000130FF007F08F807A03083120313A800BD
:100268008630A9000130AA000030AB002808B4028B
:100278002908031C290F41294229B5022A08031C11
:100288002A0F47294829B6022B08031C2B0F4D2992
:100298004E29B702831203133708031D6229013060
:1002A8003602031D5F2986303502031D5F29A03001
:1002B8003402031D5F290318622963292C29862922
:1002C8000130FF007F0883120313BD071030A80018
:1002D8002730A9000030AA000030AB002808B4027B
:1002E8002908031C290F79297A29B5022A08031C31
:1002F8002A0F7F298029B6022B08031C2B0F85297A
:100308008629B702831203133708031D9929360873
:10031800031D992927303502031D96291030340210
:10032800031D9629031899299A296429BD290130A2
:10033800FF007F0883120313BC07E830A8000330CE
:10034800A9000030AA000030AB002808B402290830
:10035800031C290FB029B129B5022A08031C2A0F4A
:10036800B629B729B6022B08031C2B0FBC29BD29B7
:10037800B702831203133708031DD0293608031D5B
:10038800D02903303502031DCD29E8303402031D7E
:10039800CD290318D029D1299B29F4290130FF0040
:1003A8007F0883120313BB076430A8000030A9003C
:1003B8000030AA000030AB002808B4022908031C4A
:1003C800290FE729E829B5022A08031C2A0FED2975
:1003D800EE29B6022B08031C2B0FF329F429B702C8
:1003E800831203133708031D062A3608031D062A3D
:1003F8003508031D062A64303402031D032A031836
:10040800062A072AD2292A2A0130FF007F088312E8
:100418000313BA070A30A8000030A9000030AA0068
:100428000030AB002808B4022908031C290F1D2A34
:100438001E2AB5022A08031C2A0F232A242AB602D8
:100448002B08031C2B0F292A2A2AB702831203130D
:100458003708031D3C2A3608031D3C2A3508031DAE
:100468003C2A0A303402031D392A03183C2A3D2A43
:10047800082A5E2A0130FF007F08B9070130A8006A
:100488000030A9000030AA000030AB002808B402F0
:100498002908031C290F512A522AB5022A08031CCD
:1004A8002A0F572A582AB6022B08031C2B0F5D2A3D
:1004B8005E2AB7028312031337083604350434045E
:1004C800031D672A682A3E2A0800F70179083E3E7C
:1004D80084008313000883120313860085170330F2
:1004E800F3009730F200F20B772AF30B772A7C2A75
:1004F80083120313851378083E3E84008313000893
:10050800860005170330F3009730F200F20B8A2AB1
:10051800F30B8A2A8F2A8312031305133D083E3EE4
:10052800840083130008860085160330F300973093
:10053800F200F20B9D2AF30B9D2AA22A83120313C1
:1005480085123C083E3E8400831300088600051689
:100558000330F3009730F200F20BB02AF30BB02A05
:10056800B52A8312031305123B083E3E8400831309
:100578000008860085150330F3009730F200F20B6F
:10058800C32AF30BC32AC82A8312031385113A0816
:100598003E3E840083130008860005150330F300EF
:1005A8009730F200F20BD62AF30BD62ADB2A8312F5
:1005B8000313051139083E3E8400831300088600A2
:1005C80085140330F3009730F200F20BE92AF30B9D
:1005D800E92AEE2A8312031385100130FF007F08F1
:1005E800F7071F307702031CFA2AFB2A6A2A080039
:1005F8000B108316031788018316031385018312D2
:1006080003138501831603138601831203138601DE
:1006180083160317890183120313901410158F0191
:100628008E010B17831603130C148B160B118630CF
:1006380081008B170B1183120313101481013803E7
:10064800031D272B282B232BB8010A128A113220CD
:100658000A128A110A128A1169220A128A110030B2
:1006680083120313B3000030B2000030B100003031
:10067800B0008F018E010B118B171014222B0A1258
:100688008A110C280030F6000030F5000030F40024
:100698000030F30083120313201C532B542B6B2BB5
:1006A8002408F307250803110318013E03195D2BDD
:1006B800F407260803110318013E0319642BF507F4
:1006C800270803110318013E03196B2BF6070130A5
:1006D800F2000310A40DA50DA60DA70DF20B6D2BAE
:1006E80001300310A30CA20CA10CA00CFF3E031DAB
:1006F800752B2308220421042004031D842B852B39
:100708004E2B7608A3007508A2007408A100730890
:10071800A0000800831203130C1C932B942BA32B0B
:100728000130B007003003180130B107003003185A
:100738000130B207003003180130B3070C100B1D4D
:10074800A62BA72BAB2B1010B801B80A0B117108F8
:100758008A00700E8300FE0E7E0E09007E088A0055
:100768007F0882000A128A11B2230A128A118000B5
:10077800840A04087D0603190034FF0A0319FE0AD7
:10078800B62B773441343B346B344D346E347E347D
:0607980043347F346F348E
:04400E00F42FFF3F4D
:00000001FF
